:100000000C942A000C9430110C9447000C94470077
:100010000C9447000C9447000C9447000C94470044
:100020000C9447000C9447000C9447000C94470034
:100030000C9447000C940C110C9447000C9447004E
:100040000C9447000C9447000C9447000C94470014
:100050000C94470011241FBECFE5D8E0DEBFCDBF12
:1000600013E0A0E6B0E0EAEDF3E202C005900D92E5
:10007000A23BB107D9F713E0A2EBB3E001C01D9298
:10008000A93CB107E1F70E94EF100C94EB110C941E
:100090000000EF92FF920F931F937B018C0120E0F1
:1000A00030E040E05FE40E94C50388238CF0C80183
:1000B000B70120E030E040E05FE40E94C1010E940F
:1000C00053049B01AC01205030404040504806C0D2
:1000D000C801B7010E9453049B01AC01B901CA01D8
:1000E0001F910F91FF90EF900895A0E0B0E0EBE733
:1000F000F0E00C94B411DC012B01FA019C919230D8
:1001000008F439C1EB018881823008F433C194309E
:1001100069F4843009F02FC111969C91119789815F
:10012000981709F428C1A7E9B2E025C1843009F481
:1001300021C18230A9F4923009F01DC19A01AD01AC
:1001400088E0EA010990AE01E90109929E0181501F
:10015000C1F7E201898111969C918923818308C1AD
:10016000923009F407C112962D903C901397EB0141
:100170008A819B811496AD90BD90CD90DC901797AD
:10018000EC80FD800E811F819101281B390BB90184
:1001900037FF04C066277727621B730B6032710537
:1001A0000CF061C0121613066CF537014801062EDB
:1001B00004C096948794779467940A94D2F721E0C8
:1001C00030E040E050E004C0220F331F441F551FB1
:1001D0006A95D2F721503040404050402E213F21B7
:1001E00040235123211531054105510521F021E01E
:1001F00030E040E050E079018A01E628F72808293C
:1002000019293CC0232BD1F1260E371E350146019A
:10021000062E04C096948794779467940A94D2F734
:1002200021E030E040E050E004C0220F331F441FC3
:10023000551F6A95D2F721503040404050402A2146
:100240003B214C215D21211531054105510521F04E
:1002500021E030E040E050E059016A01A628B728CB
:10026000C828D9280BC0821593052CF01C01AA249C
:10027000BB24650103C0EE24FF24870111969C91E5
:10028000D20111968C91981709F445C0992339F041
:10029000A80197012A193B094C095D0906C0A6016E
:1002A00095012E193F09400B510B57FD08C01182D3
:1002B0003382228224833583468357831DC081E0A5
:1002C00081833382228288279927DC01821B930B4A
:1002D000A40BB50B84839583A683B7830DC0220F2F
:1002E000331F441F551F24833583468357838281E0
:1002F000938101979383828324813581468157813D
:10030000DA01C9010197A109B1098F5F9F4FAF4F72
:10031000BF4328F30BC0918333822282EA0CFB1C7B
:100320000C1D1D1DE482F5820683178383E0808304
:10033000248135814681578157FF1AC0C901AA27F8
:1003400097FDA095BA2F81709070A070B0705695EF
:10035000479537952795822B932BA42BB52B848318
:100360009583A683B7838281938101969383828349
:10037000DF0101C0D201CD01CDB7DEB7E2E10C94BF
:10038000D011A0E2B0E0E7ECF1E00C94C011698379
:100390007A838B839C832D833E834F835887E9E048
:1003A000EE2EF12CEC0EFD1ECE010196B7010E943F
:1003B00044068E010F5E1F4FCE010596B8010E94C4
:1003C00044068A8991E089278A8BC701B801AE016A
:1003D000475E5F4F0E9475000E946F05A096E6E0A1
:1003E0000C94DC11A0E2B0E0E8EFF1E00C94C01155
:1003F00069837A838B839C832D833E834F835887C5
:10040000F9E0EF2EF12CEC0EFD1ECE010196B701A6
:100410000E9444068E010F5E1F4FCE010596B80163
:100420000E944406C701B801AE01475E5F4F0E94BB
:1004300075000E946F05A096E6E00C94DC11A0E226
:10044000B0E0E5E2F2E00C94B41169837A838B8327
:100450009C832D833E834F835887CE010196BE0136
:10046000675F7F4F0E944406CE010596BE016F5E16
:100470007F4F0E9444069985923088F089898230A6
:10048000C8F0943019F4823051F404C0843029F457
:10049000923081F487E992E0C6C0923049F420E0BE
:1004A0009A858A89981321E02A87CE010996BBC0D4
:1004B000823049F420E09A858A89981321E02A8BBA
:1004C000CE014196B0C02D843E844F8458886D88FB
:1004D0007E888F88988CEE24FF248701AA24BB2471
:1004E000650140E050E060E070E0E0E0F0E0C10174
:1004F00081709070892BE9F0E60CF71C081D191D1E
:100500009A01AB012A0D3B1D4C1D5D1D80E090E062
:10051000A0E0B0E0E614F7040805190520F481E036
:1005200090E0A0E0B0E0BA01A901480F591F6A1F8E
:100530007B1FAA0CBB1CCC1CDD1C97FE08C081E0F5
:1005400090E0A0E0B0E0A82AB92ACA2ADB2A3196B6
:10055000E032F10549F0660C771C881C991C569412
:10056000479437942794C3CFFA85EA892B893C892D
:100570008B859C85280F391F2E5F3F4F17C0CA01FE
:1005800081709070892B61F016950795F794E79428
:1005900080E090E0A0E0B0E8E82AF92A0A2B1B2BC3
:1005A00076956795579547952F5F3F4F77FDE7CF36
:1005B0000CC0440F551F661F771F17FD4160EE0CDE
:1005C000FF1C001F111F21503040403090E05907A0
:1005D00090E0690790E4790760F32B8F3C8FDB0193
:1005E000CA018F779070A070B07080349105A1051A
:1005F000B10561F447FD0AC0E114F10401051105DC
:1006000029F0405C5F4F6F4F7F4F40781A8EFE1786
:1006100011F081E08A8F4D8F5E8F6F8F78A383E01A
:10062000898FCE0149960E946F05A096E2E10C9455
:10063000D011A8E1B0E0EFE1F3E00C94BC116983C4
:100640007A838B839C832D833E834F835887B9E0C5
:10065000EB2EF12CEC0EFD1ECE010196B7010E948F
:1006600044068E010F5E1F4FCE010596B8010E9411
:1006700044062985223008F47EC03989323010F4CE
:10068000B8017CC08A859A8989278A87243011F02D
:10069000223031F4231709F06EC067E972E06EC0B2
:1006A000343039F41D861E861F86188A1C861B86E8
:1006B00004C0323021F484E08987B7015FC02B8504
:1006C0003C858B899C89281B390B3C872B87ED84C3
:1006D000FE840F851889AD88BE88CF88D88CEA142F
:1006E000FB040C051D0540F4EE0CFF1C001F111F40
:1006F000215030403C872B8720E030E040E050E044
:1007000080E090E0A0E0B0E460E070E0EA14FB0478
:100710000C051D0540F0282B392B4A2B5B2BEA18C2
:10072000FB080C091D09B695A79597958795EE0CC2
:10073000FF1C001F111F6F5F7F4F6F31710531F775
:10074000DA01C9018F779070A070B0708034910584
:10075000A105B10561F427FD0AC0E114F10401050A
:10076000110529F0205C3F4F4F4F5F4F20782D87B8
:100770003E874F87588BBE01675F7F4FCB010E943A
:100780006F056896EAE00C94D811A8E1B0E0EBECB4
:10079000F3E00C94C01169837A838B839C832D834F
:1007A0003E834F83588789E0E82EF12CEC0EFD1E26
:1007B000CE010196B7010E9444068E010F5E1F4FC5
:1007C000CE010596B8010E9444068985823040F02A
:1007D0008989823028F0C701B8010E94BC0601C097
:1007E0008FEF6896E6E00C94DC11A8E0B0E0EBEF48
:1007F000F3E00C94BD119B01AC0183E08983DA0125
:10080000C9018827B7FD83959927AA27BB27B82E4A
:10081000211531054105510519F482E089833AC05B
:100820008823A9F0203080E0380780E0480780E87E
:10083000580729F460E070E080E09FEC30C0EE24BF
:10084000FF248701E21AF30A040B150B02C0790199
:100850008A018EE1C82ED12CDC82CB82ED82FE8211
:100860000F831887C801B7010E9420050197181649
:10087000190684F4082E04C0EE0CFF1C001F111F83
:100880000A94D2F7ED82FE820F831887C81AD90A1C
:10089000DC82CB82BA82CE0101960E946F05289637
:1008A000E9E00C94D911ACE0B0E0E9E5F4E00C9497
:1008B000C41169837A838B839C83CE010196BE0128
:1008C0006B5F7F4F0E9444068D81823061F18230E0
:1008D00050F1843021F48E81882351F12EC02F8174
:1008E000388537FD20C06E812F3131051CF066231D
:1008F000F9F023C08EE190E0821B930B29853A85A5
:100900004B855C8504C056954795379527958A9504
:10091000D2F76623B1F050954095309521953F4F21
:100920004F4F5F4F0EC020E030E040E050E009C084
:100930002FEF3FEF4FEF5FE704C020E030E040E0F3
:1009400050E8B901CA012C96E2E00C94E011A8E04D
:10095000B0E0EDEAF4E00C94BC117B018C01611570
:1009600071058105910519F482E0898360C083E0F7
:1009700089838EE1C82ED12CDC82CB82ED82FE826F
:100980000F831887C801B7010E942005FC01319729
:10099000F7FF3BC0222733272E1B3F0B570168016F
:1009A000022E04C0D694C794B794A7940A94D2F7A1
:1009B00040E050E060E070E081E090E0A0E0B0E076
:1009C00004C0880F991FAA1FBB1F2A95D2F7019751
:1009D000A109B1098E219F21A023B1230097A10570
:1009E000B10521F041E050E060E070E04A295B2968
:1009F0006C297D294D835E836F8378878EE190E03B
:100A00008E1B9F0B9C838B8312C0309781F00E2E20
:100A100004C0EE0CFF1C001F111F0A94D2F7ED82D8
:100A2000FE820F831887CE1ADF0ADC82CB821A82FD
:100A3000CE0101960E946F052896EAE00C94D81129
:100A4000EF92FF920F931F937B018C0180E0E816D9
:100A500080E0F80681E0080780E0180788F48FEF4F
:100A6000E816F1040105110531F028F088E090E066
:100A7000A0E0B0E017C080E090E0A0E0B0E012C0DD
:100A800080E0E81680E0F80680E0080781E01807BB
:100A900028F088E190E0A0E0B0E004C080E190E0C0
:100AA000A0E0B0E020E230E040E050E0281B390B4D
:100AB0004A0B5B0B04C016950795F794E7948A954B
:100AC000D2F7F701E156FD4F8081281B310941091A
:100AD0005109C9011F910F91FF90EF900895DF9286
:100AE000EF92FF920F931F93FC01E480F580068143
:100AF0001781D1808081823048F480E090E0A0E1CD
:100B0000B0E0E82AF92A0A2B1B2BA5C0843009F48F
:100B10009FC0823021F4EE24FF24870105C0E11438
:100B2000F1040105110519F4E0E0F0E096C06281DE
:100B300073819FEF623879070CF05BC022E83FEFCA
:100B4000261B370B2A3131052CF020E030E040E045
:100B500050E02AC0B801A701022E04C0769567951F
:100B6000579547950A94D2F781E090E0A0E0B0E075
:100B700004C0880F991FAA1FBB1F2A95D2F701979F
:100B8000A109B1098E219F21A023B1230097A105BE
:100B9000B10521F081E090E0A0E0B0E09A01AB0166
:100BA000282B392B4A2B5B2BDA01C9018F779070E8
:100BB000A070B07080349105A105B10539F427FF0C
:100BC00009C0205C3F4F4F4F5F4F04C0215C3F4F37
:100BD0004F4F5F4FE0E0F0E02030A0E03A07A0E0A8
:100BE0004A07A0E45A0710F0E1E0F0E079018A0139
:100BF00027C06038710564F5FB01E158FF4FD8014B
:100C0000C7018F779070A070B07080349105A105F6
:100C1000B10539F4E7FE0DC080E490E0A0E0B0E05B
:100C200004C08FE390E0A0E0B0E0E80EF91E0A1FD8
:100C30001B1F17FF05C016950795F794E79431968B
:100C400087E016950795F794E7948A95D1F705C044
:100C5000EE24FF248701EFEFF0E06E2F6795662703
:100C60006795902F9F77D794DD24D7948E2F869504
:100C7000492F462B582F5D29B701CA011F910F91AB
:100C8000FF90EF90DF900895FC01DB0140815181DE
:100C90002281622F6F7770E0221F2227221F93810B
:100CA000892F880F822B282F30E0991F9927991FB1
:100CB00011969C93119721153105A9F54115510500
:100CC0006105710511F482E037C082E89FEF139649
:100CD0009C938E9312979A01AB0167E0220F331F0A
:100CE000441F551F6A95D1F783E08C930DC0220FE6
:100CF000331F441F551F12968D919C911397019796
:100D000013969C938E931297203080E0380780E0F2
:100D1000480780E4580758F314962D933D934D935C
:100D20005C93179708952F3F310579F441155105CC
:100D30006105710519F484E08C93089564FF03C084
:100D400081E08C9312C01C9210C02F573040139634
:100D50003C932E93129783E08C9387E0440F551FAA
:100D6000661F771F8A95D1F7706414964D935D9333
:100D70006D937C93179708951F93DC01FB019C9161
:100D8000923008F447C08081823008F443C0943028
:100D900051F411961C91843099F58181682F70E08F
:100DA000611B71093FC0843021F0923031F48230F0
:100DB000B9F18181882389F12DC011961C91119779
:100DC0008230F1F081811817D9F412962D913C915F
:100DD0001397828193818217930794F0281739071C
:100DE000BCF014968D919D910D90BC91A02D248105
:100DF000358146815781281739074A075B0718F460
:100E0000112341F00AC082179307A407B50740F4E5
:100E1000112319F061E070E005C06FEF7FEF02C0B1
:100E200060E070E0CB011F9108958898899A88E965
:100E30008AB986E880BD87E689B908958CB95D9B3B
:100E4000FECF08955F9BFECF8CB1089520E004C0D3
:100E5000ECB95D9BFECF2F5FFC01E20FF11DE0813D
:100E6000EE23B1F70895982F8FB78F778FBF12BEFB
:100E700093BF992331F489B7816089BF89B78D7F8A
:100E800007C0983051F489B7826089BF89B78E7FD7
:100E900089BF8FB780688FBF0895903611F4BB9AD1
:100EA0000895983609F4BB9A089583B7816083BF8B
:100EB000089513BE12BE08950895089590E0AA27DC
:100EC00097FDA095BA2FBC01CD010E94F5032AE041
:100ED00037ED43E250E40E941F0220E030E040E89A
:100EE0005FE30E94C1010E9449006CBF08959FEF1B
:100EF000899FC0011124AA2797FDA095BA2FBC0194
:100F0000CD010E94F50320E030E048EC52E40E945D
:100F100019030E9449006CBF08959C018FB78F7719
:100F20008FBF1DBC1CBC3FBD2EBD2115310549F432
:100F300089B7846089BF89B7877F89BF89B78F7E6A
:100F40000BC02830310581F489B7806189BF89B72A
:100F50008B7F89BF89B7877F89BF89B78F7D89BF1D
:100F60008FB780688FBF089583EA2031380721F05A
:100F700083EA2831380719F48C9A8D9A0895205104
:100F8000314A11F48C9A8D9A08958EB59FB581607F
:100F90009FBD8EBD08951FBC1EBC1DBC1CBC08950A
:100FA000EF92FF920F931F9328EE33E040E050E062
:100FB0000E9458110E94A70420E030E040E851E46C
:100FC0000E941F027B018C010E944900709561956F
:100FD0007F4F7093BF036093BE03C801B70120E049
:100FE00030E040E857E30E941F020E9449007093DE
:100FF000BD036093BC038091BE039091BF039DBD70
:101000008CBD1F910F91FF90EF9008958F929F924A
:10101000AF92BF92CF92DF92EF92FF920F931F9306
:101020004A0128EE33E040E050E00E9458110E944F
:10103000A70420E030E040E851E40E941F025B0179
:101040006C010E944900740100E010E0A8019701C2
:101050000E947711C401861B970B9093BF03809366
:10106000BE03C801B7010E94A7049B01AC01C601E1
:10107000B5010E9419030E9449007093BD0360935B
:10108000BC038091BE039091BF039DBD8CBD9BBCF2
:101090008ABC1F910F91FF90EF90DF90CF90BF908F
:1010A000AF909F908F900895EF92FF920F931F93B0
:1010B0007B018C0160E070E0CB01BA010E94A704C3
:1010C0009B01AC0160E074E284E79BE40E94190399
:1010D00020E030E040E85FE30E94C1010E94490047
:1010E0007BBD6ABD6AB57BB580E090E00E94A70435
:1010F00020E030E048EC52E40E9419039B01AC016F
:10110000C801B7010E941F0220E030E040E85FE321
:101110000E94C1010E94490079BD68BD1F910F91D5
:10112000FF90EF900895EF92FF920F931F937B0132
:101130008C0150E0440F551F662757FD6095762FB0
:10114000CB01BA010E94F5039B01AC0160E074E29F
:1011500084E79BE40E9419030E9449007BBD6ABD9D
:101160006AB57BB580E090E00E94A7049B01AC01CA
:10117000C801B7010E941F0220E030E048EC52E4B1
:101180000E9419030E94490079BD68BD1F910F910B
:10119000FF90EF900895EF92FF920F931F937B01C2
:1011A0008C0150E0440F551F662757FD6095762F40
:1011B000CB01BA010E94F5039B01AC0160E074E22F
:1011C00084E79BE40E9419030E9449007BBD6ABD2D
:1011D0006AB57BB580E090E00E94A7049B01AC015A
:1011E000C801B7010E941F0220E030E048EC52E441
:1011F0000E9419030E94490079BD68BD1F910F919B
:10120000FF90EF900895982F8FB78F778FBF14BC02
:1012100095BD992331F489B7806489BF89B78F77E9
:1012200007C0983051F489B7806889BF89B78F7B30
:1012300089BF8FB780688FBF0895903611F48F9A59
:101240000895983609F48F9A089585B5846085BD10
:10125000089515BC14BC08950895089590E0AA2738
:1012600097FDA095BA2FBC01CD010E94F5032AE09D
:1012700037ED43E250E40E941F0220E030E040E8F6
:101280005FE30E94C1010E94490063BD08959FEF82
:10129000899FC0011124AA2797FDA095BA2FBC01F0
:1012A000CD010E94F50320E030E048EC52E40E94BA
:1012B00019030E94490063BD089580E090E00E94F8
:1012C0008D0781E490E09FBD8EBD89B7806289BFA4
:1012D000089582E082B986B7846086BF089584EA63
:1012E00086BF06B607FEFDCF81B1887F8830E1F763
:1012F000089584EA86BF06B607FEFDCF81B1887FD8
:101300008031E1F70895880F83B984E886BF06B677
:1013100007FEFDCF81B1887F8831E1F70895880FFE
:10132000816083B984E886BF06B607FEFDCF81B130
:10133000887F8034E1F7089583B984E886BF06B6D4
:1013400007FEFDCF81B1887F8832E1F7089584E8F8
:1013500086BF06B607FEFDCF83B1089584E986BF38
:10136000089582E060E041E00E94F10982E061E0DE
:1013700041E00E94F10982E080B986B7846086BFAF
:1013800008958FB780688FBF08958BB780648BBF37
:1013900085B78E7F85BF85B7826085BF08958BB77F
:1013A00080688BBF85B78E7F85BF85B7826085BF1C
:1013B00008958BB780628BBF84B78F7B84BF0895FD
:1013C000813049F0813028F0823039F0843041F4A6
:1013D00006C06ABB089567BB089564BB089561BBEE
:1013E00008954423C9F1413009F06EC0813099F06D
:1013F000813030F08230D1F0843009F065C021C0F6
:101400002AB381E090E002C0880F991F6A95E2F745
:10141000282B2ABB089527B381E090E002C0880FF3
:10142000991F6A95E2F7282B27BB089524B381E022
:1014300090E002C0880F991F6A95E2F7282B24BB21
:10144000089521B381E090E002C0880F991F6A954A
:10145000E2F7282B21BB0895813099F0813028F0E4
:101460008230D9F0843081F524C02AB381E090E045
:1014700002C0880F991F6A95E2F7809582238ABB84
:10148000089527B381E090E002C0880F991F6A9504
:10149000E2F78095822387BB089524B381E090E032
:1014A00002C0880F991F6A95E2F78095822384BB5A
:1014B000089521B381E090E002C0880F991F6A95DA
:1014C000E2F78095822381BB0895813049F0813015
:1014D00028F0823039F0843041F406C06BBB0895A7
:1014E00068BB089565BB089562BB08954423C9F1A4
:1014F000413009F06EC0813099F0813030F0823097
:10150000D1F0843009F065C021C02BB381E090E0B8
:1015100002C0880F991F6A95E2F7282B2BBB08950C
:1015200028B381E090E002C0880F991F6A95E2F726
:10153000282B28BB089525B381E090E002C0880FD6
:10154000991F6A95E2F7282B25BB089522B381E005
:1015500090E002C0880F991F6A95E2F7282B22BB02
:101560000895813099F0813028F08230D9F08430AC
:1015700081F524C02BB381E090E002C0880F991F51
:101580006A95E2F7809582238BBB089528B381E0AA
:1015900090E002C0880F991F6A95E2F78095822338
:1015A00088BB089525B381E090E002C0880F991FA1
:1015B0006A95E2F78095822385BB089522B381E086
:1015C00090E002C0880F991F6A95E2F78095822308
:1015D00082BB0895813051F0813030F0823041F08B
:1015E000843041F080E0089589B3089586B308956A
:1015F00083B3089580B30895813051F0813030F085
:10160000823041F0843079F080E0089589B303C0DE
:1016100086B301C083B390E002C0959587956A9523
:10162000E2F78170089580B390E002C095958795A8
:101630006A95E2F781700895813091F0813028F049
:101640008230C9F0843061F521C02BB381E090E095
:1016500002C0880F991F6A95E2F728272BBB0895CF
:1016600028B381E090E002C0880F991F6A95E2F7E5
:10167000282728BB089525B381E090E002C0880F99
:10168000991F6A95E2F7282725BB089522B381E0C8
:1016900090E002C0880F991F6A95E2F7282722BBC5
:1016A0000895813091F0813028F08230C9F0843083
:1016B00061F521C02BB381E090E002C0880F991F33
:1016C0006A95E2F7282B2BBB089528B381E090E0C0
:1016D00002C0880F991F6A95E2F7282B28BB08954E
:1016E00025B381E090E002C0880F991F6A95E2F768
:1016F000282B25BB089522B381E090E002C0880F1B
:10170000991F6A95E2F7282B22BB08953F983E9ACD
:101710003D98389A39983A983B983C98359A33983E
:10172000309A319A329A379A0895369A349BFECF7E
:1017300024B135B1C90108950E94FC0A882311F42F
:1017400088E508958FE408950E941C0B089540E0F9
:101750000E94760A089541E00E94760A08950F9348
:101760001F93182F062F41E00E94760A88E893E124
:1017700020E931E0F9013197F1F70197D9F7812F8D
:10178000602F40E00E94760A1F910F91089580918A
:10179000B2030E945E0708950F931F93182F062F20
:1017A0004FEF0E94F109812F602F40E00E94760ADE
:1017B0001F910F9108950F931F93182F062F41E04B
:1017C0000E94F109812F602F40E00E94760A88E68E
:1017D0000E9433071F910F910895FF920F931F935B
:1017E000F82E81E061E041E00E94760A81E062E04B
:1017F00040E00E94760A81E063E040E00E94760AC1
:1018000080E00E94EA0A6F2D607F8F70682B80E075
:101810000E94650A81E063E041E00E94760A00EAE6
:101820001FE0C8010197F1F781E063E040E00E940A
:10183000760A80E00E94EA0AF29490EFF922682F7B
:101840006F706F2980E00E94650A81E063E041E0EB
:101850000E94760AC8010197F1F781E063E040E059
:101860000E94760A80E29EE40197F1F71F910F91A2
:10187000FF9008956F927F928F929F92AF92BF9246
:10188000CF92DF92EF92FF920F931F935B016C0157
:1018900097FF0BC08DE20E94ED0BD094C094B094E2
:1018A000A094A11CB11CC11CD11C21E0622E712C82
:1018B000812C912C20C0C401B3012AE030E040E02B
:1018C00050E00E9458117B018C01C601B5010E94B5
:1018D00099113B014C016E0C7F1C801E911EC601AC
:1018E000B5012AE030E040E050E00E949911C901C2
:1018F000DA015C016D01A114B104C104D104D9F66F
:1019000018C0C401B3012AE030E040E050E00E947A
:101910009911862F805D0E94ED0BC401B3012AE06E
:1019200030E040E050E00E949911C901DA013C0129
:101930004D0182E0681671048104910414F71F912F
:101940000F91FF90EF90DF90CF90BF90AF909F905E
:101950008F907F906F9008951F93CF93DF93EC014A
:1019600010E003C00E94ED0B1F5FFE01E10FF11DAF
:1019700080818823B9F7DF91CF911F910895FF925D
:101980000F931F93F82E81E061E040E00E94760AF9
:1019900081E062E040E00E94760A81E063E040E09E
:1019A0000E94760A80E00E94EA0A6F2D607F8F70A5
:1019B000682B80E00E94650A81E063E041E00E94BC
:1019C000760A00EA1FE0C8010197F1F781E063E0C1
:1019D00040E00E94760A80E00E94EA0AF29430EF2A
:1019E000F322682F6F706F2980E00E94650A81E002
:1019F00063E041E00E94760AC8010197F1F781E0B7
:101A000063E040E00E94760A80E29EE40197F1F7ED
:101A10001F910F91FF900895DF93CF9300D0CDB722
:101A2000DEB790E8998390EC9A83FE01E80FF11DF0
:101A30008181860F0E94BF0C0F900F90CF91DF9194
:101A4000089581E061E041E00E94F10981E062E0F7
:101A500041E00E94F10981E063E041E00E94F10968
:101A600080E064E041E00E94F10980E065E041E04F
:101A70000E94F10980E066E041E00E94F10980E007
:101A800067E041E00E94F10988EE93E020E931E04F
:101A9000F9013197F1F70197D9F783E30E94BF0C61
:101AA00082E30E94BF0C88E20E94BF0C8CE00E947F
:101AB000BF0C81E00E94BF0C82E00E94BF0C089521
:101AC000EF92FF920F931F93CF93DF9300E010E00C
:101AD00091E0E92EF12CC0EADFE0B701002E02C050
:101AE000660F771F0A94E2F7609582E00E94650A0C
:101AF000CE010197F1F782E064E00E94FC0A88239E
:101B000019F4C4E0D0E01AC082E065E00E94FC0A4B
:101B1000882319F4C5E0D0E011C082E066E00E949D
:101B2000FC0A882319F4C6E0D0E008C082E067E030
:101B30000E94FC0A882381F4C7E0D0E082E060EFD5
:101B40000E94650A000F111F000F111FC00FD11F47
:101B5000C356DC4F888106C00F5F1F4F043011054C
:101B600009F0BBCFDF91CF911F910F91FF90EF90C4
:101B7000089582E064E040E00E94F10982E065E0BF
:101B800040E00E94F10982E066E040E00E94F10935
:101B900082E067E040E00E94F10982E060E041E01D
:101BA0000E94F10982E061E041E00E94F10982E0D7
:101BB00062E041E00E94F10982E063E041E00E94BE
:101BC000F10982E064E00E94510B82E065E00E942E
:101BD000510B82E066E00E94510B82E067E00E94B8
:101BE000510B82E060E040E00E94760A82E061E012
:101BF00040E00E94760A82E062E040E00E94760ABD
:101C000082E063E040E00E94760A08951F93CF933C
:101C1000DF93182FEB010E946F0980E50E94830972
:101C2000812F0E949C0910E003C00E949C091F5F45
:101C3000FE01E10FF11D80818823B9F70E94AE09F2
:101C4000DF91CF911F9108950F931F93182F062FA7
:101C50000E946F0980E50E948309812F0E949C09E0
:101C6000802F0E949C090E94AE091F910F91089538
:101C70001F93182F0E946F0980E50E948309812F0E
:101C80000E949C090E94790980E50E948F090E94A8
:101C9000A709182F0E94AE09812F1F910895EF9276
:101CA000FF920F931F93CF93DF93062F80ECE82EC4
:101CB00083E0F82E10E0C62FD0E007C0812F0E94ED
:101CC000380EF70181937F011F5F1017B9F7C054D9
:101CD000DC4F188280EC93E0DF91CF911F910F9140
:101CE000FF90EF9008950E94B109089560E070E0C0
:101CF00082EC92E442E350E00E945408089560E0D0
:101D000070E08EE993E442E350E00E9454080895A5
:101D100088E193EA0E948D07089580E063E040E047
:101D20000E94760A089580E063E041E00E94760A0E
:101D3000089580E063E041E00E94F109089584E0A5
:101D400062E00E94FC0A089584E066E00E94FC0ABA
:101D5000089581E060E00E94FC0A089584E062E05A
:101D600040E00E94F109089584E066E040E00E94AE
:101D7000F109089581E060E040E00E94F1090895D2
:101D80000E94950B28E833E1AC01429FC001439FBC
:101D9000900D529F900D1124892F8695869590E085
:101DA000089584E063E040E00E94760A089584E0AC
:101DB00063E041E00E94760A08950E94C00E4D97AC
:101DC00030F084E063E041E00E94760A08950E94CA
:101DD000C00E459728F484E063E040E00E94760A54
:101DE00008950E94860B84E063E041E00E94F109BF
:101DF0000895CF92DF92EF92FF920F931F93DF939C
:101E0000CF93CDB7DEB72F970FB6F894DEBF0FBED6
:101E1000CDBF81E00E94BF0C80E690E00E94AC0C38
:101E200081E060E00E940C0D10E06E010894C11C7E
:101E3000D11C90E9E92E91E0F92E0E94600DF60187
:101E4000E10FF11D80838A3269F08823B1F30E948B
:101E5000ED0B84EC99E0F7013197F1F70197D9F791
:101E60001F5FEBCF89818093B70311C01091B70337
:101E70000E94380E181731F481E08093B403109259
:101E80009F0309C080919F038E5F80939F03809181
:101E90009F038F3F59F78091B403882331F481E089
:101EA0000E94BF0C89E690E040C0813009F03FC03D
:101EB0000E94BF0C8FE790E00E94AC0C81E060E0D4
:101EC0000E940C0D10E06E010894C11CD11C80E929
:101ED000E82E81E0F82E0E94600DF601E10FF11D61
:101EE00080838A3259F08823B1F384EC99E0F701BA
:101EF0003197F1F70197D9F71F5FEDCF1981109353
:101F0000B60380919F038F5F8093B5030E94380EC4
:101F1000181731F481E08093B30310929F0307C038
:101F200081E00E94BF0C8AE890E00E94AC0C809196
:101F3000B303813009F08AC00E94BF0C80EA90E0B0
:101F40000E94AC0C81E060E00E940C0D81EB90E0FF
:101F50000E94AC0C00E911E00E94600DC19761F491
:101F600082E062E00E94A40B84EC99E0F8013197D2
:101F7000F1F70197D9F7F0CF0E94600DC29761F495
:101F800082E067E00E94A40B84EC99E0F8013197AD
:101F9000F1F70197D9F7E0CF0E94600DC39761F484
:101FA00084E063E00E94A40B84EC99E0F80131978F
:101FB000F1F70197D9F7D0CF0E94600DC49761F473
:101FC00081E064E00E94A40B84EC99E0F801319771
:101FD000F1F70197D9F7C0CF0E94600DC59761F462
:101FE00081E065E00E94A40B84EC99E0F801319750
:101FF000F1F70197D9F7B0CF0E94600DC69791F421
:1020000081E00E94BF0C8DEB90E00E94AC0C0E941E
:10201000600D892BE1F30E94600D8093B2030E9452
:10202000C70B9ACF0E94600D8A9709F095CF81E087
:102030000E94BF0C80EA90E00E94AC0C81E060E05E
:102040000E940C0D83EC90E00E94AC0C2F960FB612
:10205000F894DEBF0FBECDBFCF91DF911F910F91DE
:10206000FF90EF90DF90CF9008951F938CB18093F5
:10207000C8030E941E0780E090E00E94380E809303
:10208000C7031091BB03112321F59091C803981742
:1020900061F40E94DD0E84ED90E00E94260781E04D
:1020A0008093BB031092BA038AC0953519F40E943D
:1020B000F90E85C08091B903882309F080C08AE3B6
:1020C00091E00E9426078091BA038F5F8093BA0344
:1020D00073C01130F9F48091C803863441F48CE464
:1020E00091E00E94260783E08093BB0366C083359E
:1020F00031F486E691E00E94260782E008C08C3425
:1021000009F05DC083EB91E00E94260785E0809393
:10211000BB0355C01230B9F48091C8038F3419F451
:102120000E947F0E51C0833419F40E94760E4CC079
:10213000843409F049C08FEC91E00E94260781E0C9
:102140008093BB0341C01330B1F48091B90388235D
:10215000B1F56091C8038091A00390E070E00E9407
:10216000240E81E292E00E94260784E08093BB0364
:102170001093B90324C0143039F58091B903882332
:10218000F1F48091A0038F5F8093B8036091C8033E
:1021900090E070E00E94240E8DE392E00E942607FA
:1021A0008FEC91E00E9426078091A0038E5F8093C0
:1021B000A00381E08093BB0383E08093B903809107
:1021C000B90381508093B9038091BA03833029F415
:1021D0000E94930E8FEF8093BB031F9108950E947E
:1021E000C1090E9415070E94730E0E94210D0E94D2
:1021F000F10E0E94990E0E94B90D8CE592E00E94AA
:10220000260782E992E00E94AC0C80E090E061E455
:1022100070E00E94240EFFCF1F920F920FB60F9214
:1022200011242F933F934F935F936F937F938F93DB
:102230009F93AF93BF93EF93FF930E943510FF914D
:10224000EF91BF91AF919F918F917F916F915F912E
:102250004F913F912F910F900FBE0F901F901895A7
:102260001F920F920FB60F9211242F933F934F930B
:102270005F936F937F938F939F93AF93BF93EF93EE
:10228000FF9383E490E00E94ED0B0E94F90EFF9112
:10229000EF91BF91AF919F918F917F916F915F91DE
:1022A0004F913F912F910F900FBE0F901F90189557
:1022B000629FD001739FF001829FE00DF11D649F2A
:1022C000E00DF11D929FF00D839FF00D749FF00DB6
:1022D000659FF00D9927729FB00DE11DF91F639F57
:1022E000B00DE11DF91FBD01CF0111240895A1E238
:1022F0001A2EAA1BBB1BFD010DC0AA1FBB1FEE1F80
:10230000FF1FA217B307E407F50720F0A21BB30BCA
:10231000E40BF50B661F771F881F991F1A9469F746
:1023200060957095809590959B01AC01BD01CF01A2
:10233000089597FB092E05260ED057FD04D0D7DF50
:102340000AD0001C38F450954095309521953F4FA8
:102350004F4F5F4F0895F6F7909580957095619572
:102360007F4F8F4F9F4F08952F923F924F925F92D2
:102370006F927F928F929F92AF92BF92CF92DF9295
:10238000EF92FF920F931F93CF93DF93CDB7DEB7FA
:10239000CA1BDB0B0FB6F894DEBF0FBECDBF09948E
:1023A0002A88398848885F846E847D848C849B84E5
:1023B000AA84B984C884DF80EE80FD800C811B81F3
:1023C000AA81B981CE0FD11D0FB6F894DEBF0FBE22
:0A23D000CDBFED010895F894FFCF92
:1023DA00456E74657220494400746865207573659A
:1023EA00726E616D652069732077726F6E67004542
:1023FA006E74657220506173730074686520706131
:10240A007373776F72642069732077726F6E6700D7
:10241A004C313A204C323A204C333A204C343A2050
:10242A00004C353A204C643A2041433A0053455413
:10243A003A20004C353A204C643A2041433A204431
:10244A00723A20000A594F5520415245204C4F47B5
:10245A0047454420494E2E0A494620594F55205790
:10246A00414E5420544F20414444204E4557205554
:10247A005345522050524553532046202C20434F57
:10248A004E54524F4C20444F4F52205052455353B2
:10249A0020532C204C65647320636F6E74726F6CCA
:1024AA00205052455353204C0A000A20504C4541B3
:1024BA0053452052454E5445522E0A000A454E5461
:1024CA00455220544845204E455720555345524EB3
:1024DA00414D452E0A000A494620594F5520574179
:1024EA004E5420544F206F70656E205052455353FE
:1024FA00204F202C20636C6F736520505245535334
:10250A0020432C20494620594F552057414E5420EC
:10251A00544F20474F204241434B2050524553537A
:10252A002044000A63686F6F7365206E756D62657B
:10253A00722066726F6D203120746F20350A000A8E
:10254A00494620594F552057414E5420544F204157
:10255A004444204E45572055534552205052455326
:10256A00532046202C20434F4E54524F4C20444F68
:10257A004F5220505245535320532C4C65647320BC
:10258A00636F6E74726F6C205052455353204C0A1D
:10259A00000A504C4541534520454E54455220545B
:1025AA0048452050415353574F52440A00746865B6
:1025BA002075736572206973206164646564207391
:1025CA00756363657366756C6C790A000A48454CD5
:1025DA004C4F2041444D494E20414E442057454CD2
:1025EA00434F4D450A504C4541534520454E5445AD
:1025FA005220594F55522050415353574F52443A43
:10260A000A0064617461000000000000000000001C
:10261A00010202030303030404040404040404057A
:10262A00050505050505050505050505050505064F
:10263A000606060606060606060606060606060630
:10264A00060606060606060606060606060606071F
:10265A000707070707070707070707070707070700
:10266A0007070707070707070707070707070707F0
:10267A0007070707070707070707070707070707E0
:10268A0007070707070707070707070707070708CF
:10269A0008080808080808080808080808080808B0
:1026AA0008080808080808080808080808080808A0
:1026BA000808080808080808080808080808080890
:1026CA000808080808080808080808080808080880
:1026DA000808080808080808080808080808080870
:1026EA000808080808080808080808080808080860
:1026FA000808080808080808080808080808080850
:10270A000808080808080808080808080808080146
:10271A00013132334134353642373839432E303D70
:02272A002A0083
:00000001FF
